{
  "transactions": [
    {
      "hash": "0x47b47b918d02e8cb910b7c080d2a557a2df070d3c00d5683c78f404b7b49bbca",
      "transactionType": "CREATE",
      "contractName": "MockERC20",
      "contractAddress": "0xa0e5ec50ef49064d23688f8aa04a18456824d887",
      "function": null,
      "arguments": [
        "Loyalty Test A",
        "LTA",
        "18"
      ],
      "transaction": {
        "from": "0xe230afd6634749e22ad32db0427f6956ddd7d330",
        "gas": "0x120480",
        "value": "0x0",
        "input": "0x60e0806040523461040657611325803803809161001c828561040a565b83398101906060818303126104065780516001600160401b038111610406578261004791830161042d565b60208201519092906001600160401b0381116104065760409161006b91840161042d565b91015160ff811681036104065782516001600160401b038111610337576100925f54610482565b601f81116103b7575b506020601f821160011461035657819293945f9261034b575b50508160011b915f199060031b1c1916175f555b81516001600160401b038111610337576100e3600154610482565b601f81116102d4575b50602092601f821160011461027357928192935f92610268575b50508160011b915f199060031b1c1916176001555b6080524660a0526040515f905f54918161013484610482565b9182825260208201946001811690815f1461024c5750600114610202575b61015e9250038261040a565b51902060405160208101917f8b73c3c69bb8fe3d512ecc4cf759cc79239f7b179b0ffacaa9a75d522b39400f835260408201527fc89efdaa54c0f20c7adf612882df0950f5a951637e0307cdcb4c672f298b8bc660608201524660808201523060a082015260a081526101d260c08261040a565b51902060c052604051610e4a90816104bb823960805181610865015260a05181610ca8015260c05181610cce0152f35b505f80805290915f805160206113058339815191525b81831061023057505090602061015e92820101610152565b6020919350806001915483858801015201910190918392610218565b60ff191686525061015e92151560051b82016020019050610152565b015190505f80610106565b601f1982169360015f52805f20915f5b8681106102bc57508360019596106102a4575b505050811b0160015561011b565b01515f1960f88460031b161c191690555f8080610296565b91926020600181928685015181550194019201610283565b60015f527fb10e2d527612073b26eecdfd717e6a320cf44b4afac2b0732d9fcbe2b7fa0cf6601f830160051c8101916020841061032d575b601f0160051c01905b81811061032257506100ec565b5f8155600101610315565b909150819061030c565b634e487b7160e01b5f52604160045260245ffd5b015190505f806100b4565b601f198216905f8052805f20915f5b81811061039f57509583600195969710610387575b505050811b015f556100c8565b01515f1960f88460031b161c191690555f808061037a565b9192602060018192868b015181550194019201610365565b5f80525f80516020611305833981519152601f830160051c810191602084106103fc575b601f0160051c01905b8181106103f1575061009b565b5f81556001016103e4565b90915081906103db565b5f80fd5b601f909101601f19168101906001600160401b0382119082101761033757604052565b81601f82011215610406578051906001600160401b0382116103375760405192610461601f8401601f19166020018561040a565b8284526020838301011161040657815f9260208093018386015e8301015290565b90600182811c921680156104b0575b602083101461049c57565b634e487b7160e01b5f52602260045260245ffd5b91607f169161049156fe60806040526004361015610011575f80fd5b5f3560e01c806306fdde0314610a8b578063095ea7b3146109e857806318160ddd146109ad57806323b872dd14610889578063313ce5671461082e5780633644e515146107ee57806340c10f191461071f57806370a08231146106bc5780637ecebe001461065957806395d89b41146105435780639dc29fac146104a4578063a9059cbb146103f0578063d505accf146101435763dd62ed3e146100b3575f80fd5b3461013f5760407ffffffffffffffffffffffffffffffffffffffffffffffffffffffffffffffffc36011261013f576100ea610c52565b73ffffffffffffffffffffffffffffffffffffffff610107610c75565b91165f52600460205273ffffffffffffffffffffffffffffffffffffffff60405f2091165f52602052602060405f2054604051908152f35b5f80fd5b3461013f5760e07ffffffffffffffffffffffffffffffffffffffffffffffffffffffffffffffffc36011261013f5761017a610c52565b610182610c75565b6044356064359260843560ff811680910361013f574285106103925760805f9160209373ffffffffffffffffffffffffffffffffffffffff6101c2610ca5565b91169687855260058652604085209889549960018b0190556040519073ffffffffffffffffffffffffffffffffffffffff888301937f6e71edae12b1b97f4d1f60370fef10105fa2faae0126114a169c64845d6126c985528b6040850152169a8b6060840152898784015260a083015260c082015260c0815261024660e082610b9c565b51902060405190868201927f19010000000000000000000000000000000000000000000000000000000000008452602283015260428201526042815261028d606282610b9c565b519020906040519182528482015260a435604082015260c435606082015282805260015afa156103875773ffffffffffffffffffffffffffffffffffffffff5f51168015158061037e575b15610320577f8c5be1e5ebec7d5bd14f71427d1e84f3dd0314c0f7b2291e5b200ac8c7c3b925916020915f526004825260405f20855f5282528060405f2055604051908152a3005b60646040517f08c379a000000000000000000000000000000000000000000000000000000000815260206004820152600e60248201527f494e56414c49445f5349474e45520000000000000000000000000000000000006044820152fd5b508281146102d8565b6040513d5f823e3d90fd5b60646040517f08c379a000000000000000000000000000000000000000000000000000000000815260206004820152601760248201527f5045524d49545f444541444c494e455f455850495245440000000000000000006044820152fd5b3461013f5760407ffffffffffffffffffffffffffffffffffffffffffffffffffffffffffffffffc36011261013f57610427610c52565b73ffffffffffffffffffffffffffffffffffffffff60243591335f52600360205260405f20610457848254610c98565b90551690815f52600360205260405f208181540190556040519081527fddf252ad1be2c89b69c2b068fc378daa952ba7f163c4a11628f55a4df523b3ef60203392a3602060405160018152f35b3461013f5760407ffffffffffffffffffffffffffffffffffffffffffffffffffffffffffffffffc36011261013f575f6104dc610c52565b7fddf252ad1be2c89b69c2b068fc378daa952ba7f163c4a11628f55a4df523b3ef602073ffffffffffffffffffffffffffffffffffffffff6024359316928385526003825260408520610530828254610c98565b90558060025403600255604051908152a3005b3461013f575f7ffffffffffffffffffffffffffffffffffffffffffffffffffffffffffffffffc36011261013f576040515f60015461058181610b4b565b808452906001811690811561061757506001146105b9575b6105b5836105a981850382610b9c565b60405191829182610c0a565b0390f35b60015f9081527fb10e2d527612073b26eecdfd717e6a320cf44b4afac2b0732d9fcbe2b7fa0cf6939250905b8082106105fd575090915081016020016105a9610599565b9192600181602092548385880101520191019092916105e5565b7fffffffffffffffffffffffffffffffffffffffffffffffffffffffffffffff001660208086019190915291151560051b840190910191506105a99050610599565b3461013f5760207ffffffffffffffffffffffffffffffffffffffffffffffffffffffffffffffffc36011261013f5773ffffffffffffffffffffffffffffffffffffffff6106a5610c52565b165f526005602052602060405f2054604051908152f35b3461013f5760207ffffffffffffffffffffffffffffffffffffffffffffffffffffffffffffffffc36011261013f5773ffffffffffffffffffffffffffffffffffffffff610708610c52565b165f526003602052602060405f2054604051908152f35b3461013f5760407ffffffffffffffffffffffffffffffffffffffffffffffffffffffffffffffffc36011261013f57610756610c52565b602435906002548281018091116107c157602073ffffffffffffffffffffffffffffffffffffffff5f937fddf252ad1be2c89b69c2b068fc378daa952ba7f163c4a11628f55a4df523b3ef9360025516938484526003825260408420818154019055604051908152a3005b7f4e487b71000000000000000000000000000000000000000000000000000000005f52601160045260245ffd5b3461013f575f7ffffffffffffffffffffffffffffffffffffffffffffffffffffffffffffffffc36011261013f576020610826610ca5565b604051908152f35b3461013f575f7ffffffffffffffffffffffffffffffffffffffffffffffffffffffffffffffffc36011261013f57602060405160ff7f0000000000000000000000000000000000000000000000000000000000000000168152f35b3461013f5760607ffffffffffffffffffffffffffffffffffffffffffffffffffffffffffffffffc36011261013f576108c0610c52565b6108c8610c75565b7fddf252ad1be2c89b69c2b068fc378daa952ba7f163c4a11628f55a4df523b3ef602073ffffffffffffffffffffffffffffffffffffffff80604435951693845f526004835260405f208233165f52835260405f2054867fffffffffffffffffffffffffffffffffffffffffffffffffffffffffffffffff8203610986575b5050845f526003835260405f2061095f878254610c98565b90551693845f526003825260405f20818154019055604051908152a3602060405160018152f35b61098f91610c98565b855f526004845260405f208333165f52845260405f20558686610947565b3461013f575f7ffffffffffffffffffffffffffffffffffffffffffffffffffffffffffffffffc36011261013f576020600254604051908152f35b3461013f5760407ffffffffffffffffffffffffffffffffffffffffffffffffffffffffffffffffc36011261013f57610a1f610c52565b73ffffffffffffffffffffffffffffffffffffffff60243591335f52600460205260405f208282165f526020528260405f205560405192835216907f8c5be1e5ebec7d5bd14f71427d1e84f3dd0314c0f7b2291e5b200ac8c7c3b92560203392a3602060405160018152f35b3461013f575f7ffffffffffffffffffffffffffffffffffffffffffffffffffffffffffffffffc36011261013f576040515f8054610ac881610b4b565b80845290600181169081156106175750600114610aef576105b5836105a981850382610b9c565b5f8080527f290decd9548b62a8d60345a988386fc84ba6bc95484008f6362f93160ef3e563939250905b808210610b31575090915081016020016105a9610599565b919260018160209254838588010152019101909291610b19565b90600182811c92168015610b92575b6020831014610b6557565b7f4e487b71000000000000000000000000000000000000000000000000000000005f52602260045260245ffd5b91607f1691610b5a565b90601f7fffffffffffffffffffffffffffffffffffffffffffffffffffffffffffffffe0910116810190811067ffffffffffffffff821117610bdd57604052565b7f4e487b71000000000000000000000000000000000000000000000000000000005f52604160045260245ffd5b7fffffffffffffffffffffffffffffffffffffffffffffffffffffffffffffffe0601f602060409481855280519182918282880152018686015e5f8582860101520116010190565b6004359073ffffffffffffffffffffffffffffffffffffffff8216820361013f57565b6024359073ffffffffffffffffffffffffffffffffffffffff8216820361013f57565b919082039182116107c157565b467f000000000000000000000000000000000000000000000000000000000000000003610cf0577f000000000000000000000000000000000000000000000000000000000000000090565b6040515f905f549181610d0284610b4b565b9182825260208201946001811690815f14610e035750600114610da6575b610d2c92500382610b9c565b51902060405160208101917f8b73c3c69bb8fe3d512ecc4cf759cc79239f7b179b0ffacaa9a75d522b39400f835260408201527fc89efdaa54c0f20c7adf612882df0950f5a951637e0307cdcb4c672f298b8bc660608201524660808201523060a082015260a08152610da060c082610b9c565b51902090565b505f80805290917f290decd9548b62a8d60345a988386fc84ba6bc95484008f6362f93160ef3e5635b818310610de7575050906020610d2c92820101610d20565b6020919350806001915483858801015201910190918392610dcf565b7fffffffffffffffffffffffffffffffffffffffffffffffffffffffffffffff0016865250610d2c92151560051b82016020019050610d2056fea164736f6c634300081a000a290decd9548b62a8d60345a988386fc84ba6bc95484008f6362f93160ef3e563000000000000000000000000000000000000000000000000000000000000006000000000000000000000000000000000000000000000000000000000000000a00000000000000000000000000000000000000000000000000000000000000012000000000000000000000000000000000000000000000000000000000000000e4c6f79616c74792054657374204100000000000000000000000000000000000000000000000000000000000000000000000000000000000000000000000000034c54410000000000000000000000000000000000000000000000000000000000",
        "nonce": "0x1",
        "chainId": "0xaa36a7"
      },
      "additionalContracts": [],
      "isFixedGasLimit": false
    },
    {
      "hash": "0x58bc3bc2abe6ad96479a6475a9b0e9fc94423ebce647626c6fcfd904af63113d",
      "transactionType": "CREATE",
      "contractName": "MockERC20",
      "contractAddress": "0xfc9357957ed537e63bd6d9e70bbe4a68fb69b944",
      "function": null,
      "arguments": [
        "Loyalty Test B",
        "LTB",
        "18"
      ],
      "transaction": {
        "from": "0xe230afd6634749e22ad32db0427f6956ddd7d330",
        "gas": "0x120480",
        "value": "0x0",
        "input": "0x60e0806040523461040657611325803803809161001c828561040a565b83398101906060818303126104065780516001600160401b038111610406578261004791830161042d565b60208201519092906001600160401b0381116104065760409161006b91840161042d565b91015160ff811681036104065782516001600160401b038111610337576100925f54610482565b601f81116103b7575b506020601f821160011461035657819293945f9261034b575b50508160011b915f199060031b1c1916175f555b81516001600160401b038111610337576100e3600154610482565b601f81116102d4575b50602092601f821160011461027357928192935f92610268575b50508160011b915f199060031b1c1916176001555b6080524660a0526040515f905f54918161013484610482565b9182825260208201946001811690815f1461024c5750600114610202575b61015e9250038261040a565b51902060405160208101917f8b73c3c69bb8fe3d512ecc4cf759cc79239f7b179b0ffacaa9a75d522b39400f835260408201527fc89efdaa54c0f20c7adf612882df0950f5a951637e0307cdcb4c672f298b8bc660608201524660808201523060a082015260a081526101d260c08261040a565b51902060c052604051610e4a90816104bb823960805181610865015260a05181610ca8015260c05181610cce0152f35b505f80805290915f805160206113058339815191525b81831061023057505090602061015e92820101610152565b6020919350806001915483858801015201910190918392610218565b60ff191686525061015e92151560051b82016020019050610152565b015190505f80610106565b601f1982169360015f52805f20915f5b8681106102bc57508360019596106102a4575b505050811b0160015561011b565b01515f1960f88460031b161c191690555f8080610296565b91926020600181928685015181550194019201610283565b60015f527fb10e2d527612073b26eecdfd717e6a320cf44b4afac2b0732d9fcbe2b7fa0cf6601f830160051c8101916020841061032d575b601f0160051c01905b81811061032257506100ec565b5f8155600101610315565b909150819061030c565b634e487b7160e01b5f52604160045260245ffd5b015190505f806100b4565b601f198216905f8052805f20915f5b81811061039f57509583600195969710610387575b505050811b015f556100c8565b01515f1960f88460031b161c191690555f808061037a565b9192602060018192868b015181550194019201610365565b5f80525f80516020611305833981519152601f830160051c810191602084106103fc575b601f0160051c01905b8181106103f1575061009b565b5f81556001016103e4565b90915081906103db565b5f80fd5b601f909101601f19168101906001600160401b0382119082101761033757604052565b81601f82011215610406578051906001600160401b0382116103375760405192610461601f8401601f19166020018561040a565b8284526020838301011161040657815f9260208093018386015e8301015290565b90600182811c921680156104b0575b602083101461049c57565b634e487b7160e01b5f52602260045260245ffd5b91607f169161049156fe60806040526004361015610011575f80fd5b5f3560e01c806306fdde0314610a8b578063095ea7b3146109e857806318160ddd146109ad57806323b872dd14610889578063313ce5671461082e5780633644e515146107ee57806340c10f191461071f57806370a08231146106bc5780637ecebe001461065957806395d89b41146105435780639dc29fac146104a4578063a9059cbb146103f0578063d505accf146101435763dd62ed3e146100b3575f80fd5b3461013f5760407ffffffffffffffffffffffffffffffffffffffffffffffffffffffffffffffffc36011261013f576100ea610c52565b73ffffffffffffffffffffffffffffffffffffffff610107610c75565b91165f52600460205273ffffffffffffffffffffffffffffffffffffffff60405f2091165f52602052602060405f2054604051908152f35b5f80fd5b3461013f5760e07ffffffffffffffffffffffffffffffffffffffffffffffffffffffffffffffffc36011261013f5761017a610c52565b610182610c75565b6044356064359260843560ff811680910361013f574285106103925760805f9160209373ffffffffffffffffffffffffffffffffffffffff6101c2610ca5565b91169687855260058652604085209889549960018b0190556040519073ffffffffffffffffffffffffffffffffffffffff888301937f6e71edae12b1b97f4d1f60370fef10105fa2faae0126114a169c64845d6126c985528b6040850152169a8b6060840152898784015260a083015260c082015260c0815261024660e082610b9c565b51902060405190868201927f19010000000000000000000000000000000000000000000000000000000000008452602283015260428201526042815261028d606282610b9c565b519020906040519182528482015260a435604082015260c435606082015282805260015afa156103875773ffffffffffffffffffffffffffffffffffffffff5f51168015158061037e575b15610320577f8c5be1e5ebec7d5bd14f71427d1e84f3dd0314c0f7b2291e5b200ac8c7c3b925916020915f526004825260405f20855f5282528060405f2055604051908152a3005b60646040517f08c379a000000000000000000000000000000000000000000000000000000000815260206004820152600e60248201527f494e56414c49445f5349474e45520000000000000000000000000000000000006044820152fd5b508281146102d8565b6040513d5f823e3d90fd5b60646040517f08c379a000000000000000000000000000000000000000000000000000000000815260206004820152601760248201527f5045524d49545f444541444c494e455f455850495245440000000000000000006044820152fd5b3461013f5760407ffffffffffffffffffffffffffffffffffffffffffffffffffffffffffffffffc36011261013f57610427610c52565b73ffffffffffffffffffffffffffffffffffffffff60243591335f52600360205260405f20610457848254610c98565b90551690815f52600360205260405f208181540190556040519081527fddf252ad1be2c89b69c2b068fc378daa952ba7f163c4a11628f55a4df523b3ef60203392a3602060405160018152f35b3461013f5760407ffffffffffffffffffffffffffffffffffffffffffffffffffffffffffffffffc36011261013f575f6104dc610c52565b7fddf252ad1be2c89b69c2b068fc378daa952ba7f163c4a11628f55a4df523b3ef602073ffffffffffffffffffffffffffffffffffffffff6024359316928385526003825260408520610530828254610c98565b90558060025403600255604051908152a3005b3461013f575f7ffffffffffffffffffffffffffffffffffffffffffffffffffffffffffffffffc36011261013f576040515f60015461058181610b4b565b808452906001811690811561061757506001146105b9575b6105b5836105a981850382610b9c565b60405191829182610c0a565b0390f35b60015f9081527fb10e2d527612073b26eecdfd717e6a320cf44b4afac2b0732d9fcbe2b7fa0cf6939250905b8082106105fd575090915081016020016105a9610599565b9192600181602092548385880101520191019092916105e5565b7fffffffffffffffffffffffffffffffffffffffffffffffffffffffffffffff001660208086019190915291151560051b840190910191506105a99050610599565b3461013f5760207ffffffffffffffffffffffffffffffffffffffffffffffffffffffffffffffffc36011261013f5773ffffffffffffffffffffffffffffffffffffffff6106a5610c52565b165f526005602052602060405f2054604051908152f35b3461013f5760207ffffffffffffffffffffffffffffffffffffffffffffffffffffffffffffffffc36011261013f5773ffffffffffffffffffffffffffffffffffffffff610708610c52565b165f526003602052602060405f2054604051908152f35b3461013f5760407ffffffffffffffffffffffffffffffffffffffffffffffffffffffffffffffffc36011261013f57610756610c52565b602435906002548281018091116107c157602073ffffffffffffffffffffffffffffffffffffffff5f937fddf252ad1be2c89b69c2b068fc378daa952ba7f163c4a11628f55a4df523b3ef9360025516938484526003825260408420818154019055604051908152a3005b7f4e487b71000000000000000000000000000000000000000000000000000000005f52601160045260245ffd5b3461013f575f7ffffffffffffffffffffffffffffffffffffffffffffffffffffffffffffffffc36011261013f576020610826610ca5565b604051908152f35b3461013f575f7ffffffffffffffffffffffffffffffffffffffffffffffffffffffffffffffffc36011261013f57602060405160ff7f0000000000000000000000000000000000000000000000000000000000000000168152f35b3461013f5760607ffffffffffffffffffffffffffffffffffffffffffffffffffffffffffffffffc36011261013f576108c0610c52565b6108c8610c75565b7fddf252ad1be2c89b69c2b068fc378daa952ba7f163c4a11628f55a4df523b3ef602073ffffffffffffffffffffffffffffffffffffffff80604435951693845f526004835260405f208233165f52835260405f2054867fffffffffffffffffffffffffffffffffffffffffffffffffffffffffffffffff8203610986575b5050845f526003835260405f2061095f878254610c98565b90551693845f526003825260405f20818154019055604051908152a3602060405160018152f35b61098f91610c98565b855f526004845260405f208333165f52845260405f20558686610947565b3461013f575f7ffffffffffffffffffffffffffffffffffffffffffffffffffffffffffffffffc36011261013f576020600254604051908152f35b3461013f5760407ffffffffffffffffffffffffffffffffffffffffffffffffffffffffffffffffc36011261013f57610a1f610c52565b73ffffffffffffffffffffffffffffffffffffffff60243591335f52600460205260405f208282165f526020528260405f205560405192835216907f8c5be1e5ebec7d5bd14f71427d1e84f3dd0314c0f7b2291e5b200ac8c7c3b92560203392a3602060405160018152f35b3461013f575f7ffffffffffffffffffffffffffffffffffffffffffffffffffffffffffffffffc36011261013f576040515f8054610ac881610b4b565b80845290600181169081156106175750600114610aef576105b5836105a981850382610b9c565b5f8080527f290decd9548b62a8d60345a988386fc84ba6bc95484008f6362f93160ef3e563939250905b808210610b31575090915081016020016105a9610599565b919260018160209254838588010152019101909291610b19565b90600182811c92168015610b92575b6020831014610b6557565b7f4e487b71000000000000000000000000000000000000000000000000000000005f52602260045260245ffd5b91607f1691610b5a565b90601f7fffffffffffffffffffffffffffffffffffffffffffffffffffffffffffffffe0910116810190811067ffffffffffffffff821117610bdd57604052565b7f4e487b71000000000000000000000000000000000000000000000000000000005f52604160045260245ffd5b7fffffffffffffffffffffffffffffffffffffffffffffffffffffffffffffffe0601f602060409481855280519182918282880152018686015e5f8582860101520116010190565b6004359073ffffffffffffffffffffffffffffffffffffffff8216820361013f57565b6024359073ffffffffffffffffffffffffffffffffffffffff8216820361013f57565b919082039182116107c157565b467f000000000000000000000000000000000000000000000000000000000000000003610cf0577f000000000000000000000000000000000000000000000000000000000000000090565b6040515f905f549181610d0284610b4b565b9182825260208201946001811690815f14610e035750600114610da6575b610d2c92500382610b9c565b51902060405160208101917f8b73c3c69bb8fe3d512ecc4cf759cc79239f7b179b0ffacaa9a75d522b39400f835260408201527fc89efdaa54c0f20c7adf612882df0950f5a951637e0307cdcb4c672f298b8bc660608201524660808201523060a082015260a08152610da060c082610b9c565b51902090565b505f80805290917f290decd9548b62a8d60345a988386fc84ba6bc95484008f6362f93160ef3e5635b818310610de7575050906020610d2c92820101610d20565b6020919350806001915483858801015201910190918392610dcf565b7fffffffffffffffffffffffffffffffffffffffffffffffffffffffffffffff0016865250610d2c92151560051b82016020019050610d2056fea164736f6c634300081a000a290decd9548b62a8d60345a988386fc84ba6bc95484008f6362f93160ef3e563000000000000000000000000000000000000000000000000000000000000006000000000000000000000000000000000000000000000000000000000000000a00000000000000000000000000000000000000000000000000000000000000012000000000000000000000000000000000000000000000000000000000000000e4c6f79616c74792054657374204200000000000000000000000000000000000000000000000000000000000000000000000000000000000000000000000000034c54420000000000000000000000000000000000000000000000000000000000",
        "nonce": "0x2",
        "chainId": "0xaa36a7"
      },
      "additionalContracts": [],
      "isFixedGasLimit": false
    },
    {
      "hash": "0xfe198e05857a7bea8c9fe1cd1fde7fc5fd384936088e1b488d7b7f199d5366d0",
      "transactionType": "CALL",
      "contractName": "MockERC20",
      "contractAddress": "0xa0e5ec50ef49064d23688f8aa04a18456824d887",
      "function": "mint(address,uint256)",
      "arguments": [
        "0xe230aFD6634749e22aD32dB0427F6956ddd7D330",
        "1000000000000000000000000"
      ],
      "transaction": {
        "from": "0xe230afd6634749e22ad32db0427f6956ddd7d330",
        "to": "0xa0e5ec50ef49064d23688f8aa04a18456824d887",
        "gas": "0x16f53",
        "value": "0x0",
        "input": "0x40c10f19000000000000000000000000e230afd6634749e22ad32db0427f6956ddd7d33000000000000000000000000000000000000000000000d3c21bcecceda1000000",
        "nonce": "0x3",
        "chainId": "0xaa36a7"
      },
      "additionalContracts": [],
      "isFixedGasLimit": false
    },
    {
      "hash": "0xf6ee8dd2e3b9e571626b160ff029fc65461d38c7853b87de65680ee23a42b45e",
      "transactionType": "CALL",
      "contractName": "MockERC20",
      "contractAddress": "0xfc9357957ed537e63bd6d9e70bbe4a68fb69b944",
      "function": "mint(address,uint256)",
      "arguments": [
        "0xe230aFD6634749e22aD32dB0427F6956ddd7D330",
        "1000000000000000000000000"
      ],
      "transaction": {
        "from": "0xe230afd6634749e22ad32db0427f6956ddd7d330",
        "to": "0xfc9357957ed537e63bd6d9e70bbe4a68fb69b944",
        "gas": "0x16f53",
        "value": "0x0",
        "input": "0x40c10f19000000000000000000000000e230afd6634749e22ad32db0427f6956ddd7d33000000000000000000000000000000000000000000000d3c21bcecceda1000000",
        "nonce": "0x4",
        "chainId": "0xaa36a7"
      },
      "additionalContracts": [],
      "isFixedGasLimit": false
    },
    {
      "hash": "0xe163ad7989c21909527495ddd15017d9a8d166bed7650b42d5a8c74695d23b62",
      "transactionType": "CREATE",
      "contractName": "PoolModifyLiquidityTest",
      "contractAddress": "0x46ee9b44f31b83a28b16a31fde61eaf651f51cee",
      "function": null,
      "arguments": [
        "0xE03A1074c86CFeDd5C142C4F04F1a1536e203543"
      ],
      "transaction": {
        "from": "0xe230afd6634749e22ad32db0427f6956ddd7d330",
        "gas": "0x1ae5e8",
        "value": "0x0",
        "input": "0x60a034607a57601f61183538819003918201601f19168301916001600160401b03831184841017607e57808492602094604052833981010312607a57516001600160a01b0381168103607a576080526040516117a29081610093823960805181818160b50152818161099001528181610ac101526111390152f35b5f80fd5b634e487b7160e01b5f52604160045260245ffdfe60806040526004361015610011575f80fd5b5f3560e01c80630a5b11e414610ae5578063481c6a7514610a775780635a6bcfda14610790576391dd734614610045575f80fd5b346107795760207ffffffffffffffffffffffffffffffffffffffffffffffffffffffffffffffffc3601126107795760043567ffffffffffffffff8111610779573660238201121561077957806004013567ffffffffffffffff81116107795781016024810190368211610779577f00000000000000000000000000000000000000000000000000000000000000009273ffffffffffffffffffffffffffffffffffffffff841690813303610779576020818403126107795760248101359067ffffffffffffffff82116107795701906101a082840312610779576040519161012d83610c27565b61013960248201610ce9565b835260a07fffffffffffffffffffffffffffffffffffffffffffffffffffffffffffffffe08286030112610779576040519361017485610c70565b61018060448301610ce9565b855261018e60648301610ce9565b6020860152608482013562ffffff811681036107795760408601526101b560a48301610d0a565b606086015260c482013573ffffffffffffffffffffffffffffffffffffffff81168103610779577fffffffffffffffffffffffffffffffffffffffffffffffffffffffffffffff1c83608093602493858a01526020880198895203010112610779576040519561022487610c8c565b61023060e48301610d0a565b875261023f6101048301610d0a565b6020880152610124820135604088015261014482013560608801526040840196875261016482013567ffffffffffffffff81116107795761039f96602461028892850101610e8a565b916060850192835260406102b36101a46102a56101848501610ed0565b936080890194855201610ed0565b9360a087019485526102e060a08951208b51805160020b6060602083015160020b92015192309089610f80565b5050956103715f8c6103b38c519151955187519e8f97889687957f5a6bcfda000000000000000000000000000000000000000000000000000000008752600487019073ffffffffffffffffffffffffffffffffffffffff6080809282815116855282602082015116602086015262ffffff6040820151166040860152606081015160020b6060860152015116910152565b8051600290810b60a48701526020820151900b60c4860152604081015160e486015260600151610104850152565b610140610124840152610144830190610edd565b03925af1968715610785575f9761074d575b506103eb60a08751208951805160020b6060602083015160020b92015192309087610f80565b50509061042a73ffffffffffffffffffffffffffffffffffffffff88515116309073ffffffffffffffffffffffffffffffffffffffff89511690611114565b939150506fffffffffffffffffffffffffffffffff61047e73ffffffffffffffffffffffffffffffffffffffff60208b51015116309073ffffffffffffffffffffffffffffffffffffffff8b511690611114565b9891505016600f0b9060408b510151915f8382019384129112908015821691151617610720576fffffffffffffffffffffffffffffffff16600f0b036106c2576040610548995101515f81125f1461067d57505f82138015610674575b6104e490610f20565b5f8212801561066b575b6104f89015610f20565b5f821261061d575b5f85126105ca575b505f8113610583575b505f831361054c575b868660405190602082015260208152610534604082610ca8565b604051918291602083526020830190610edd565b0390f35b73ffffffffffffffffffffffffffffffffffffffff80602061057997510151169451169151151593611545565b5f8080808061051a565b6105c49073ffffffffffffffffffffffffffffffffffffffff875151169073ffffffffffffffffffffffffffffffffffffffff875116848651151593611545565b5f610511565b6106179073ffffffffffffffffffffffffffffffffffffffff602089510151169073ffffffffffffffffffffffffffffffffffffffff8851168561060d89610f54565b925115159361120d565b5f610508565b61066673ffffffffffffffffffffffffffffffffffffffff8851511673ffffffffffffffffffffffffffffffffffffffff88511661065a85610f54565b9086855115159361120d565b610500565b505f85126104ee565b505f85136104db565b5f12156104f8575f821280156106b9575b61069790610f20565b5f821380156106b0575b6106ab9015610f20565b6104f8565b505f85136106a1565b505f851261068e565b60646040517f08c379a000000000000000000000000000000000000000000000000000000000815260206004820152601a60248201527f6c6971756964697479206368616e676520696e636f72726563740000000000006044820152fd5b7f4e487b71000000000000000000000000000000000000000000000000000000005f52601160045260245ffd5b9096506040813d60401161077d575b8161076960409383610ca8565b810103126107795751955f6103c5565b5f80fd5b3d915061075c565b6040513d5f823e3d90fd5b6101407ffffffffffffffffffffffffffffffffffffffffffffffffffffffffffffffffc360112610779576107c436610d18565b6107cd36610de4565b90610124359167ffffffffffffffff83116107795761093b5f9273ffffffffffffffffffffffffffffffffffffffff9261080e610976963690600401610e8a565b916108fc6040519361081f85610c27565b3385526020850192835260408501938452606085019081526108e760808601948986526108b560a08801958b87526040519a8b996020808c0152511660408a015251606089019073ffffffffffffffffffffffffffffffffffffffff6080809282815116855282602082015116602086015262ffffff6040820151166040860152606081015160020b6060860152015116910152565b518051600290810b6101008901526020820151900b610120880152604081015161014088015260600151610160870152565b516101a06101808601526101e0850190610edd565b915115156101a08401525115156101c0830152037fffffffffffffffffffffffffffffffffffffffffffffffffffffffffffffffe08101835282610ca8565b604051809381927f48c89491000000000000000000000000000000000000000000000000000000008352602060048401526024830190610edd565b03818373ffffffffffffffffffffffffffffffffffffffff7f0000000000000000000000000000000000000000000000000000000000000000165af1908115610785575f916109fd575b50602081805181010312610779576020015147806109e4575b602082604051908152f35b5f80808093335af1156109f757816109d9565b33611656565b90503d805f833e610a0e8183610ca8565b8101906020818303126107795780519067ffffffffffffffff8211610779570181601f8201121561077957805190610a4582610e50565b92610a536040519485610ca8565b8284526020838301011161077957815f9260208093018386015e83010152816109c0565b34610779575f7ffffffffffffffffffffffffffffffffffffffffffffffffffffffffffffffffc36011261077957602060405173ffffffffffffffffffffffffffffffffffffffff7f0000000000000000000000000000000000000000000000000000000000000000168152f35b6101807ffffffffffffffffffffffffffffffffffffffffffffffffffffffffffffffffc36011261077957610b1936610d18565b610b2236610de4565b906101243567ffffffffffffffff811161077957610b44903690600401610e8a565b91610144359283151580940361077957610164359283151580940361077957610976945f946108fc61093b946108e773ffffffffffffffffffffffffffffffffffffffff976108b560405197610b9989610c27565b3389526020890190815260408901928352606089019485526080890197885260a089019687526040519a8b996020808c0152511660408a015251606089019073ffffffffffffffffffffffffffffffffffffffff6080809282815116855282602082015116602086015262ffffff6040820151166040860152606081015160020b6060860152015116910152565b60c0810190811067ffffffffffffffff821117610c4357604052565b7f4e487b71000000000000000000000000000000000000000000000000000000005f52604160045260245ffd5b60a0810190811067ffffffffffffffff821117610c4357604052565b6080810190811067ffffffffffffffff821117610c4357604052565b90601f7fffffffffffffffffffffffffffffffffffffffffffffffffffffffffffffffe0910116810190811067ffffffffffffffff821117610c4357604052565b359073ffffffffffffffffffffffffffffffffffffffff8216820361077957565b35908160020b820361077957565b7ffffffffffffffffffffffffffffffffffffffffffffffffffffffffffffffffc60a09101126107795760405190610d4f82610c70565b8160043573ffffffffffffffffffffffffffffffffffffffff8116810361077957815260243573ffffffffffffffffffffffffffffffffffffffff8116810361077957602082015260443562ffffff811681036107795760408201526064358060020b81036107795760608201526084359073ffffffffffffffffffffffffffffffffffffffff821682036107795760800152565b7fffffffffffffffffffffffffffffffffffffffffffffffffffffffffffffff5c60809101126107795760405190610e1b82610c8c565b8160a4358060020b810361077957815260c4358060020b810361077957602082015260e4356040820152606061010435910152565b67ffffffffffffffff8111610c4357601f017fffffffffffffffffffffffffffffffffffffffffffffffffffffffffffffffe01660200190565b81601f8201121561077957803590610ea182610e50565b92610eaf6040519485610ca8565b8284526020838301011161077957815f926020809301838601378301015290565b3590811515820361077957565b907fffffffffffffffffffffffffffffffffffffffffffffffffffffffffffffffe0601f602080948051918291828752018686015e5f8582860101520116010190565b15610f2757565b7f4e487b71000000000000000000000000000000000000000000000000000000005f52600160045260245ffd5b7f80000000000000000000000000000000000000000000000000000000000000008114610720575f0390565b94939290926040519460268601526006850152600384015282525f603a600c8401209281604082015281602082015252604051602081019182526006604082015260408152610fd0606082610ca8565b51902091600683018093116107205760445f9273ffffffffffffffffffffffffffffffffffffffff946040519060208201928352604082015260408152611018606082610ca8565b51902060405194859384927f35fd631a000000000000000000000000000000000000000000000000000000008452600484015260036024840152165afa908115610785575f91611078575b50602081015160408201516060909201519092565b90503d805f833e6110898183610ca8565b8101906020818303126107795780519067ffffffffffffffff821161077957019080601f830112156107795781519167ffffffffffffffff8311610c43578260051b90604051936110dd6020840186610ca8565b845260208085019282010192831161077957602001905b828210611104575050505f611063565b81518152602091820191016110f4565b92906111209084611716565b9273ffffffffffffffffffffffffffffffffffffffff807f00000000000000000000000000000000000000000000000000000000000000001691816111658483611716565b95165f5216602052602060405f206024604051809481937ff135baaa00000000000000000000000000000000000000000000000000000000835260048301525afa908115610785575f916111b7575090565b90506020813d6020116111de575b816111d260209383610ca8565b81010312610779575190565b3d91506111c5565b90816020910312610779575180151581036107795790565b90816020910312610779575190565b9293156112af5773ffffffffffffffffffffffffffffffffffffffff16803b15610779576040517ff5298aca00000000000000000000000000000000000000000000000000000000815273ffffffffffffffffffffffffffffffffffffffff92831660048201529290911660248301526044820192909252905f908290818381606481015b03925af18015610785576112a35750565b5f6112ad91610ca8565b565b9173ffffffffffffffffffffffffffffffffffffffff168061134d57505073ffffffffffffffffffffffffffffffffffffffff600460209260405194859384927f11da60b4000000000000000000000000000000000000000000000000000000008452165af18015610785576113225750565b6113439060203d602011611346575b61133b8183610ca8565b8101906111fe565b50565b503d611331565b90929173ffffffffffffffffffffffffffffffffffffffff1691823b1561077957604051937fa58411940000000000000000000000000000000000000000000000000000000085525f948360048201525f8160248183895af180156107855761151c575b5073ffffffffffffffffffffffffffffffffffffffff16843082146114a8576020929160649160405195869485937f23b872dd000000000000000000000000000000000000000000000000000000008552600485015288602485015260448401525af1801561149d57916020918493611470575b505b6004604051809581937f11da60b40000000000000000000000000000000000000000000000000000000083525af190811561146457506113225750565b604051903d90823e3d90fd5b61148f90833d8511611496575b6114878183610ca8565b8101906111e6565b505f611425565b503d61147d565b6040513d85823e3d90fd5b929050604460209260405194859384927fa9059cbb00000000000000000000000000000000000000000000000000000000845288600485015260248401525af1801561149d579160209184936114ff575b50611427565b61151590833d8511611496576114878183610ca8565b505f6114f9565b6115299195505f90610ca8565b5f9373ffffffffffffffffffffffffffffffffffffffff6113b1565b9293156115ce5773ffffffffffffffffffffffffffffffffffffffff16803b15610779576040517f156e29f600000000000000000000000000000000000000000000000000000000815273ffffffffffffffffffffffffffffffffffffffff92831660048201529290911660248301526044820192909252905f90829081838160648101611292565b90929073ffffffffffffffffffffffffffffffffffffffff16803b15610779575f928360649273ffffffffffffffffffffffffffffffffffffffff948560405198899788967f0b0d9c0900000000000000000000000000000000000000000000000000000000885216600487015216602485015260448401525af18015610785576112a35750565b7fffffffffffffffffffffffffffffffffffffffffffffffffffffffffffffffe0601f3d011673ffffffffffffffffffffffffffffffffffffffff604051927f90bfb8650000000000000000000000000000000000000000000000000000000084521660048301525f6024830152608060448301528060a00160648301523d60848301523d5f60a484013e7ff4b3b1bc0000000000000000000000000000000000000000000000000000000060c4828401600460a4820152015260e40190fd5b73ffffffffffffffffffffffffffffffffffffffff168061173657503190565b9073ffffffffffffffffffffffffffffffffffffffff602460209260405194859384927f70a082310000000000000000000000000000000000000000000000000000000084521660048301525afa908115610785575f916111b757509056fea164736f6c634300081a000a000000000000000000000000e03a1074c86cfedd5c142c4f04f1a1536e203543",
        "nonce": "0x5",
        "chainId": "0xaa36a7"
      },
      "additionalContracts": [],
      "isFixedGasLimit": false
    },
    {
      "hash": "0x960ad35d9b4e0f161f11b6daf579889b505619c28e6880169e394e46b47af341",
      "transactionType": "CALL",
      "contractName": "MockERC20",
      "contractAddress": "0xa0e5ec50ef49064d23688f8aa04a18456824d887",
      "function": "approve(address,uint256)",
      "arguments": [
        "0x46eE9B44f31B83A28B16A31fDE61eAF651F51CEe",
        "115792089237316195423570985008687907853269984665640564039457584007913129639935"
      ],
      "transaction": {
        "from": "0xe230afd6634749e22ad32db0427f6956ddd7d330",
        "to": "0xa0e5ec50ef49064d23688f8aa04a18456824d887",
        "gas": "0x107f3",
        "value": "0x0",
        "input": "0x095ea7b300000000000000000000000046ee9b44f31b83a28b16a31fde61eaf651f51ceeffffffffffffffffffffffffffffffffffffffffffffffffffffffffffffffff",
        "nonce": "0x6",
        "chainId": "0xaa36a7"
      },
      "additionalContracts": [],
      "isFixedGasLimit": false
    },
    {
      "hash": "0x8235d4a37073993a0a988030497a79ba95707cc857d19cf3cca7640c42a0b6c4",
      "transactionType": "CALL",
      "contractName": "MockERC20",
      "contractAddress": "0xfc9357957ed537e63bd6d9e70bbe4a68fb69b944",
      "function": "approve(address,uint256)",
      "arguments": [
        "0x46eE9B44f31B83A28B16A31fDE61eAF651F51CEe",
        "115792089237316195423570985008687907853269984665640564039457584007913129639935"
      ],
      "transaction": {
        "from": "0xe230afd6634749e22ad32db0427f6956ddd7d330",
        "to": "0xfc9357957ed537e63bd6d9e70bbe4a68fb69b944",
        "gas": "0x107f3",
        "value": "0x0",
        "input": "0x095ea7b300000000000000000000000046ee9b44f31b83a28b16a31fde61eaf651f51ceeffffffffffffffffffffffffffffffffffffffffffffffffffffffffffffffff",
        "nonce": "0x7",
        "chainId": "0xaa36a7"
      },
      "additionalContracts": [],
      "isFixedGasLimit": false
    },
    {
      "hash": "0xd5f5559fb14839238e01ff939f912a67a48a8265c18dffe9c9306a22791baec4",
      "transactionType": "CALL",
      "contractName": null,
      "contractAddress": "0xe03a1074c86cfedd5c142c4f04f1a1536e203543",
      "function": "initialize((address,address,uint24,int24,address),uint160)",
      "arguments": [
        "(0xa0E5eC50EF49064d23688f8aA04a18456824D887, 0xfC9357957eD537e63bD6d9E70BBe4A68fb69b944, 3000, 60, 0x22ee81a8adEb1B64D19E00c812185C89371A0501)",
        "79228162514264337593543950336"
      ],
      "transaction": {
        "from": "0xe230afd6634749e22ad32db0427f6956ddd7d330",
        "to": "0xe03a1074c86cfedd5c142c4f04f1a1536e203543",
        "gas": "0x1277b",
        "value": "0x0",
        "input": "0x6276cbbe000000000000000000000000a0e5ec50ef49064d23688f8aa04a18456824d887000000000000000000000000fc9357957ed537e63bd6d9e70bbe4a68fb69b9440000000000000000000000000000000000000000000000000000000000000bb8000000000000000000000000000000000000000000000000000000000000003c00000000000000000000000022ee81a8adeb1b64d19e00c812185c89371a05010000000000000000000000000000000000000001000000000000000000000000",
        "nonce": "0x8",
        "chainId": "0xaa36a7"
      },
      "additionalContracts": [],
      "isFixedGasLimit": false
    },
    {
      "hash": "0x48912a40d3e3ebae0b8cdb1f1dfa256d3d28453bc5e9785a1b2a50c8d0fc04d6",
      "transactionType": "CALL",
      "contractName": "PoolModifyLiquidityTest",
      "contractAddress": "0x46ee9b44f31b83a28b16a31fde61eaf651f51cee",
      "function": "modifyLiquidity((address,address,uint24,int24,address),(int24,int24,int256,bytes32),bytes)",
      "arguments": [
        "(0xa0E5eC50EF49064d23688f8aA04a18456824D887, 0xfC9357957eD537e63bD6d9E70BBe4A68fb69b944, 3000, 60, 0x22ee81a8adEb1B64D19E00c812185C89371A0501)",
        "(-120, 120, 1000000000000000000, 0x0000000000000000000000000000000000000000000000000000000000000000)",
        "0x"
      ],
      "transaction": {
        "from": "0xe230afd6634749e22ad32db0427f6956ddd7d330",
        "to": "0x46ee9b44f31b83a28b16a31fde61eaf651f51cee",
        "gas": "0x6c4f8",
        "value": "0x0",
        "input": "0x5a6bcfda000000000000000000000000a0e5ec50ef49064d23688f8aa04a18456824d887000000000000000000000000fc9357957ed537e63bd6d9e70bbe4a68fb69b9440000000000000000000000000000000000000000000000000000000000000bb8000000000000000000000000000000000000000000000000000000000000003c00000000000000000000000022ee81a8adeb1b64d19e00c812185c89371a0501ffffffffffffffffffffffffffffffffffffffffffffffffffffffffffffff8800000000000000000000000000000000000000000000000000000000000000780000000000000000000000000000000000000000000000000de0b6b3a7640000000000000000000000000000000000000000000000000000000000000000000000000000000000000000000000000000000000000000000000000000000001400000000000000000000000000000000000000000000000000000000000000000",
        "nonce": "0x9",
        "chainId": "0xaa36a7"
      },
      "additionalContracts": [],
      "isFixedGasLimit": false
    },
    {
      "hash": "0x87a5bc0f215ed5d9d43b28002e074eff24cb161c053df184bd0b9f75137b7240",
      "transactionType": "CALL",
      "contractName": "PoolModifyLiquidityTest",
      "contractAddress": "0x46ee9b44f31b83a28b16a31fde61eaf651f51cee",
      "function": "modifyLiquidity((address,address,uint24,int24,address),(int24,int24,int256,bytes32),bytes)",
      "arguments": [
        "(0xa0E5eC50EF49064d23688f8aA04a18456824D887, 0xfC9357957eD537e63bD6d9E70BBe4A68fb69b944, 3000, 60, 0x22ee81a8adEb1B64D19E00c812185C89371A0501)",
        "(-120, 120, 1000000000000000000, 0x0000000000000000000000000000000000000000000000000000000000000001)",
        "0x"
      ],
      "transaction": {
        "from": "0xe230afd6634749e22ad32db0427f6956ddd7d330",
        "to": "0x46ee9b44f31b83a28b16a31fde61eaf651f51cee",
        "gas": "0x401b9",
        "value": "0x0",
        "input": "0x5a6bcfda000000000000000000000000a0e5ec50ef49064d23688f8aa04a18456824d887000000000000000000000000fc9357957ed537e63bd6d9e70bbe4a68fb69b9440000000000000000000000000000000000000000000000000000000000000bb8000000000000000000000000000000000000000000000000000000000000003c00000000000000000000000022ee81a8adeb1b64d19e00c812185c89371a0501ffffffffffffffffffffffffffffffffffffffffffffffffffffffffffffff8800000000000000000000000000000000000000000000000000000000000000780000000000000000000000000000000000000000000000000de0b6b3a7640000000000000000000000000000000000000000000000000000000000000000000100000000000000000000000000000000000000000000000000000000000001400000000000000000000000000000000000000000000000000000000000000000",
        "nonce": "0xa",
        "chainId": "0xaa36a7"
      },
      "additionalContracts": [],
      "isFixedGasLimit": false
    },
    {
      "hash": "0x728a2a0336f35127ce0f827d5ed3ad5e330dc4df211411d0043be881cfbf0bf2",
      "transactionType": "CALL",
      "contractName": "PoolModifyLiquidityTest",
      "contractAddress": "0x46ee9b44f31b83a28b16a31fde61eaf651f51cee",
      "function": "modifyLiquidity((address,address,uint24,int24,address),(int24,int24,int256,bytes32),bytes)",
      "arguments": [
        "(0xa0E5eC50EF49064d23688f8aA04a18456824D887, 0xfC9357957eD537e63bD6d9E70BBe4A68fb69b944, 3000, 60, 0x22ee81a8adEb1B64D19E00c812185C89371A0501)",
        "(-120, 120, -1000000000000000000, 0x0000000000000000000000000000000000000000000000000000000000000001)",
        "0x"
      ],
      "transaction": {
        "from": "0xe230afd6634749e22ad32db0427f6956ddd7d330",
        "to": "0x46ee9b44f31b83a28b16a31fde61eaf651f51cee",
        "gas": "0x40c4d",
        "value": "0x0",
        "input": "0x5a6bcfda000000000000000000000000a0e5ec50ef49064d23688f8aa04a18456824d887000000000000000000000000fc9357957ed537e63bd6d9e70bbe4a68fb69b9440000000000000000000000000000000000000000000000000000000000000bb8000000000000000000000000000000000000000000000000000000000000003c00000000000000000000000022ee81a8adeb1b64d19e00c812185c89371a0501ffffffffffffffffffffffffffffffffffffffffffffffffffffffffffffff880000000000000000000000000000000000000000000000000000000000000078fffffffffffffffffffffffffffffffffffffffffffffffff21f494c589c0000000000000000000000000000000000000000000000000000000000000000000100000000000000000000000000000000000000000000000000000000000001400000000000000000000000000000000000000000000000000000000000000000",
        "nonce": "0xb",
        "chainId": "0xaa36a7"
      },
      "additionalContracts": [],
      "isFixedGasLimit": false
    },
    {
      "hash": "0x4798f2f2caa06c8a476cfa5278ef099b737b8f34cc2c9eef040afc1944cbefdb",
      "transactionType": "CALL",
      "contractName": "PoolModifyLiquidityTest",
      "contractAddress": "0x46ee9b44f31b83a28b16a31fde61eaf651f51cee",
      "function": "modifyLiquidity((address,address,uint24,int24,address),(int24,int24,int256,bytes32),bytes)",
      "arguments": [
        "(0xa0E5eC50EF49064d23688f8aA04a18456824D887, 0xfC9357957eD537e63bD6d9E70BBe4A68fb69b944, 3000, 60, 0x22ee81a8adEb1B64D19E00c812185C89371A0501)",
        "(-120, 120, -1000000000000000000, 0x0000000000000000000000000000000000000000000000000000000000000000)",
        "0x"
      ],
      "transaction": {
        "from": "0xe230afd6634749e22ad32db0427f6956ddd7d330",
        "to": "0x46ee9b44f31b83a28b16a31fde61eaf651f51cee",
        "gas": "0x39b41",
        "value": "0x0",
        "input": "0x5a6bcfda000000000000000000000000a0e5ec50ef49064d23688f8aa04a18456824d887000000000000000000000000fc9357957ed537e63bd6d9e70bbe4a68fb69b9440000000000000000000000000000000000000000000000000000000000000bb8000000000000000000000000000000000000000000000000000000000000003c00000000000000000000000022ee81a8adeb1b64d19e00c812185c89371a0501ffffffffffffffffffffffffffffffffffffffffffffffffffffffffffffff880000000000000000000000000000000000000000000000000000000000000078fffffffffffffffffffffffffffffffffffffffffffffffff21f494c589c0000000000000000000000000000000000000000000000000000000000000000000000000000000000000000000000000000000000000000000000000000000001400000000000000000000000000000000000000000000000000000000000000000",
        "nonce": "0xc",
        "chainId": "0xaa36a7"
      },
      "additionalContracts": [],
      "isFixedGasLimit": false
    }
  ],
  "receipts": [
    {
      "status": "0x1",
      "cumulativeGasUsed": "0xb939c7",
      "logs": [],
      "logsBloom": "0x00000000000000000000000000000000000000000000000000000000000000000000000000000000000000000000000000000000000000000000000000000000000000000000000000000000000000000000000000000000000000000000000000000000000000000000000000000000000000000000000000000000000000000000000000000000000000000000000000000000000000000000000000000000000000000000000000000000000000000000000000000000000000000000000000000000000000000000000000000000000000000000000000000000000000000000000000000000000000000000000000000000000000000000000000000000",
      "type": "0x2",
      "transactionHash": "0x47b47b918d02e8cb910b7c080d2a557a2df070d3c00d5683c78f404b7b49bbca",
      "transactionIndex": "0xa3",
      "blockHash": "0xec4e4c304e0e12130624d39c5e3a4e02e8017c43fac5cb15be6916149d3b46c6",
      "blockNumber": "0xa92c97",
      "gasUsed": "0xddc14",
      "effectiveGasPrice": "0x4122d6af",
      "from": "0xe230afd6634749e22ad32db0427f6956ddd7d330",
      "to": null,
      "contractAddress": "0xa0e5ec50ef49064d23688f8aa04a18456824d887"
    },
    {
      "status": "0x1",
      "cumulativeGasUsed": "0xb5ec40",
      "logs": [],
      "logsBloom": "0x00000000000000000000000000000000000000000000000000000000000000000000000000000000000000000000000000000000000000000000000000000000000000000000000000000000000000000000000000000000000000000000000000000000000000000000000000000000000000000000000000000000000000000000000000000000000000000000000000000000000000000000000000000000000000000000000000000000000000000000000000000000000000000000000000000000000000000000000000000000000000000000000000000000000000000000000000000000000000000000000000000000000000000000000000000000",
      "type": "0x2",
      "transactionHash": "0x58bc3bc2abe6ad96479a6475a9b0e9fc94423ebce647626c6fcfd904af63113d",
      "transactionIndex": "0x9c",
      "blockHash": "0x54f9ffba1269fda0cff0ea14e4a07e8684a57fd2e4f65ae2856e95118a60534d",
      "blockNumber": "0xa92c98",
      "gasUsed": "0xddc14",
      "effectiveGasPrice": "0x3d5ad7c5",
      "from": "0xe230afd6634749e22ad32db0427f6956ddd7d330",
      "to": null,
      "contractAddress": "0xfc9357957ed537e63bd6d9e70bbe4a68fb69b944"
    },
    {
      "status": "0x1",
      "cumulativeGasUsed": "0x381efe4",
      "logs": [
        {
          "address": "0xa0e5ec50ef49064d23688f8aa04a18456824d887",
          "topics": [
            "0xddf252ad1be2c89b69c2b068fc378daa952ba7f163c4a11628f55a4df523b3ef",
            "0x0000000000000000000000000000000000000000000000000000000000000000",
            "0x000000000000000000000000e230afd6634749e22ad32db0427f6956ddd7d330"
          ],
          "data": "0x00000000000000000000000000000000000000000000d3c21bcecceda1000000",
          "blockHash": "0x0bbf318b0db7732fbad2df867a23ba6370456d7e74341cd707d1c5743429a29e",
          "blockNumber": "0xa92c99",
          "blockTimestamp": "0x6a33e150",
          "transactionHash": "0xfe198e05857a7bea8c9fe1cd1fde7fc5fd384936088e1b488d7b7f199d5366d0",
          "transactionIndex": "0xbf",
          "logIndex": "0x104",
          "removed": false
        }
      ],
      "logsBloom": "0x00000000000000000000000000000000000000000000000000000000000000000000000000000000001000000000000000000000000000000001000000000000000000002000000000000008000000000000000000000000000000000000000000400000020000000000000000000800000000000000000000000010000000000000000000000000000000000000000000000000000000000000000000000000000000000000000000000200000000000000000000000000000000000000000000000002000000000000000000000000400000000000000000000000000020000000000000000000000000000000000000000000000000000000000000000000",
      "type": "0x2",
      "transactionHash": "0xfe198e05857a7bea8c9fe1cd1fde7fc5fd384936088e1b488d7b7f199d5366d0",
      "transactionIndex": "0xbf",
      "blockHash": "0x0bbf318b0db7732fbad2df867a23ba6370456d7e74341cd707d1c5743429a29e",
      "blockNumber": "0xa92c99",
      "gasUsed": "0x109f0",
      "effectiveGasPrice": "0x3a8d985c",
      "from": "0xe230afd6634749e22ad32db0427f6956ddd7d330",
      "to": "0xa0e5ec50ef49064d23688f8aa04a18456824d887",
      "contractAddress": null
    },
    {
      "status": "0x1",
      "cumulativeGasUsed": "0xfb137b",
      "logs": [
        {
          "address": "0xfc9357957ed537e63bd6d9e70bbe4a68fb69b944",
          "topics": [
            "0xddf252ad1be2c89b69c2b068fc378daa952ba7f163c4a11628f55a4df523b3ef",
            "0x0000000000000000000000000000000000000000000000000000000000000000",
            "0x000000000000000000000000e230afd6634749e22ad32db0427f6956ddd7d330"
          ],
          "data": "0x00000000000000000000000000000000000000000000d3c21bcecceda1000000",
          "blockHash": "0xe9005e75a0c9dd9a9bcb3ecfbbce126653b13b446b4e8b4aaa184604f48bfc69",
          "blockNumber": "0xa92c9a",
          "blockTimestamp": "0x6a33e15c",
          "transactionHash": "0xf6ee8dd2e3b9e571626b160ff029fc65461d38c7853b87de65680ee23a42b45e",
          "transactionIndex": "0xcf",
          "logIndex": "0x1a6",
          "removed": false
        }
      ],
      "logsBloom": "0x00000000000000000000000000000000000000000000000000000000000000000000000000000000001000000000000000000000000000000001000000000000000000000000000000000008000000000000000000000000000000000000000000400000020000000001000000000800000000004000000000000010000000000000000000000000000000000000000000000000000000000000000004000000000000000000000000000000000000000000000000000000000000000000000000000002000000000000000000000000000000000000000000000000000020000000000000000000000000000000000000000000000000000000000000000000",
      "type": "0x2",
      "transactionHash": "0xf6ee8dd2e3b9e571626b160ff029fc65461d38c7853b87de65680ee23a42b45e",
      "transactionIndex": "0xcf",
      "blockHash": "0xe9005e75a0c9dd9a9bcb3ecfbbce126653b13b446b4e8b4aaa184604f48bfc69",
      "blockNumber": "0xa92c9a",
      "gasUsed": "0x109f0",
      "effectiveGasPrice": "0x41dc1938",
      "from": "0xe230afd6634749e22ad32db0427f6956ddd7d330",
      "to": "0xfc9357957ed537e63bd6d9e70bbe4a68fb69b944",
      "contractAddress": null
    },
    {
      "status": "0x1",
      "cumulativeGasUsed": "0xbdb29e",
      "logs": [],
      "logsBloom": "0x00000000000000000000000000000000000000000000000000000000000000000000000000000000000000000000000000000000000000000000000000000000000000000000000000000000000000000000000000000000000000000000000000000000000000000000000000000000000000000000000000000000000000000000000000000000000000000000000000000000000000000000000000000000000000000000000000000000000000000000000000000000000000000000000000000000000000000000000000000000000000000000000000000000000000000000000000000000000000000000000000000000000000000000000000000000",
      "type": "0x2",
      "transactionHash": "0xe163ad7989c21909527495ddd15017d9a8d166bed7650b42d5a8c74695d23b62",
      "transactionIndex": "0x8f",
      "blockHash": "0x250f0defaada38fdbc5f8eecac6facbf869cd671a586a3ab1c542c4f39d0ee48",
      "blockNumber": "0xa92c9b",
      "gasUsed": "0x14b0da",
      "effectiveGasPrice": "0x403e8abb",
      "from": "0xe230afd6634749e22ad32db0427f6956ddd7d330",
      "to": null,
      "contractAddress": "0x46ee9b44f31b83a28b16a31fde61eaf651f51cee"
    },
    {
      "status": "0x1",
      "cumulativeGasUsed": "0xee8623",
      "logs": [
        {
          "address": "0xa0e5ec50ef49064d23688f8aa04a18456824d887",
          "topics": [
            "0x8c5be1e5ebec7d5bd14f71427d1e84f3dd0314c0f7b2291e5b200ac8c7c3b925",
            "0x000000000000000000000000e230afd6634749e22ad32db0427f6956ddd7d330",
            "0x00000000000000000000000046ee9b44f31b83a28b16a31fde61eaf651f51cee"
          ],
          "data": "0xffffffffffffffffffffffffffffffffffffffffffffffffffffffffffffffff",
          "blockHash": "0xa26e5b19bc23524999fefbff6557dd3a8da28d1d23b0bdbac17c6f0f4bb4b1a8",
          "blockNumber": "0xa92c9c",
          "blockTimestamp": "0x6a33e174",
          "transactionHash": "0x960ad35d9b4e0f161f11b6daf579889b505619c28e6880169e394e46b47af341",
          "transactionIndex": "0xc9",
          "logIndex": "0x133",
          "removed": false
        }
      ],
      "logsBloom": "0x00000000000000000000000000000000000000200000000000000000000000000000000000000000001000000000000000000000000000000001000000200000000000002000000000200000000000000000000000000000000000000000000000400000000000000000000000000000000000000000000000000000000000000000000000000000000000000000000000000000000000000000000000000000020000000000000000000200000000000000000000000000000000000000000000000000000000000000000000000000400000000000000000000000000000000010000000000008000000000000000000000000000000000000000000000000",
      "type": "0x2",
      "transactionHash": "0x960ad35d9b4e0f161f11b6daf579889b505619c28e6880169e394e46b47af341",
      "transactionIndex": "0xc9",
      "blockHash": "0xa26e5b19bc23524999fefbff6557dd3a8da28d1d23b0bdbac17c6f0f4bb4b1a8",
      "blockNumber": "0xa92c9c",
      "gasUsed": "0xb47b",
      "effectiveGasPrice": "0x3c7c2d22",
      "from": "0xe230afd6634749e22ad32db0427f6956ddd7d330",
      "to": "0xa0e5ec50ef49064d23688f8aa04a18456824d887",
      "contractAddress": null
    },
    {
      "status": "0x1",
      "cumulativeGasUsed": "0x38ebaf1",
      "logs": [
        {
          "address": "0xfc9357957ed537e63bd6d9e70bbe4a68fb69b944",
          "topics": [
            "0x8c5be1e5ebec7d5bd14f71427d1e84f3dd0314c0f7b2291e5b200ac8c7c3b925",
            "0x000000000000000000000000e230afd6634749e22ad32db0427f6956ddd7d330",
            "0x00000000000000000000000046ee9b44f31b83a28b16a31fde61eaf651f51cee"
          ],
          "data": "0xffffffffffffffffffffffffffffffffffffffffffffffffffffffffffffffff",
          "blockHash": "0xa30d362c11321dabb748c08e4a3d61e279464104ee0842de3c48d59dc89958b3",
          "blockNumber": "0xa92c9d",
          "blockTimestamp": "0x6a33e180",
          "transactionHash": "0x8235d4a37073993a0a988030497a79ba95707cc857d19cf3cca7640c42a0b6c4",
          "transactionIndex": "0xa0",
          "logIndex": "0xee",
          "removed": false
        }
      ],
      "logsBloom": "0x00000000000000000000000000000000000000200000000000000000000000000000000000000000001000000000000000000000000000000001000000200000000000000000000000200000000000000000000000000000000000000000000000400000000000000001000000000000000000004000000000000000000000000000000000000000000000000000000000000000000000000000000004000000020000000000000000000000000000000000000000000000000000000000000000000000000000000000000000000000000000000000000000000000000000000010000000000008000000000000000000000000000000000000000000000000",
      "type": "0x2",
      "transactionHash": "0x8235d4a37073993a0a988030497a79ba95707cc857d19cf3cca7640c42a0b6c4",
      "transactionIndex": "0xa0",
      "blockHash": "0xa30d362c11321dabb748c08e4a3d61e279464104ee0842de3c48d59dc89958b3",
      "blockNumber": "0xa92c9d",
      "gasUsed": "0xb47b",
      "effectiveGasPrice": "0x3a79a895",
      "from": "0xe230afd6634749e22ad32db0427f6956ddd7d330",
      "to": "0xfc9357957ed537e63bd6d9e70bbe4a68fb69b944",
      "contractAddress": null
    },
    {
      "status": "0x1",
      "cumulativeGasUsed": "0xbb7bdf",
      "logs": [
        {
          "address": "0xe03a1074c86cfedd5c142c4f04f1a1536e203543",
          "topics": [
            "0xdd466e674ea557f56295e2d0218a125ea4b4f0f6f3307b95f85e6110838d6438",
            "0x1a2842c53efe179c6a8ba4e36fd07982e9745deaa129642ad2144bfdd35454c4",
            "0x000000000000000000000000a0e5ec50ef49064d23688f8aa04a18456824d887",
            "0x000000000000000000000000fc9357957ed537e63bd6d9e70bbe4a68fb69b944"
          ],
          "data": "0x0000000000000000000000000000000000000000000000000000000000000bb8000000000000000000000000000000000000000000000000000000000000003c00000000000000000000000022ee81a8adeb1b64d19e00c812185c89371a050100000000000000000000000000000000000000010000000000000000000000000000000000000000000000000000000000000000000000000000000000000000",
          "blockHash": "0x060d2d443171d70c40bcca725727af65f8b9f06e8c8743d3229a51e6aa408648",
          "blockNumber": "0xa92c9e",
          "blockTimestamp": "0x6a33e18c",
          "transactionHash": "0xd5f5559fb14839238e01ff939f912a67a48a8265c18dffe9c9306a22791baec4",
          "transactionIndex": "0xa7",
          "logIndex": "0x136",
          "removed": false
        }
      ],
      "logsBloom": "0x00000000000000000000000000000000000000000000008000000020000000000000000000000000000000000000000000000100000000000000000000000000000000000000000000000000001000000000000000000000000000000000000000000000000000000000000400000000000001000000100000000000000000000000000000000008000000000000000000000001000000000000000000200000000000000808000000000000000000000000000000000000000000000000000000140000000000000000000000000000000000000000000000000000000000001000000000000000000000000000000000000000000000000000000000000000",
      "type": "0x2",
      "transactionHash": "0xd5f5559fb14839238e01ff939f912a67a48a8265c18dffe9c9306a22791baec4",
      "transactionIndex": "0xa7",
      "blockHash": "0x060d2d443171d70c40bcca725727af65f8b9f06e8c8743d3229a51e6aa408648",
      "blockNumber": "0xa92c9e",
      "gasUsed": "0xca0a",
      "effectiveGasPrice": "0x41c6432d",
      "from": "0xe230afd6634749e22ad32db0427f6956ddd7d330",
      "to": "0xe03a1074c86cfedd5c142c4f04f1a1536e203543",
      "contractAddress": null
    },
    {
      "status": "0x1",
      "cumulativeGasUsed": "0xf3b4fe",
      "logs": [
        {
          "address": "0xe03a1074c86cfedd5c142c4f04f1a1536e203543",
          "topics": [
            "0xf208f4912782fd25c7f114ca3723a2d5dd6f3bcc3ac8db5af63baa85f711d5ec",
            "0x1a2842c53efe179c6a8ba4e36fd07982e9745deaa129642ad2144bfdd35454c4",
            "0x00000000000000000000000046ee9b44f31b83a28b16a31fde61eaf651f51cee"
          ],
          "data": "0xffffffffffffffffffffffffffffffffffffffffffffffffffffffffffffff8800000000000000000000000000000000000000000000000000000000000000780000000000000000000000000000000000000000000000000de0b6b3a76400000000000000000000000000000000000000000000000000000000000000000000",
          "blockHash": "0x5a3fd4a13258dd0876680067e03da59b9e0970f56d4234c49008e29502ea10fd",
          "blockNumber": "0xa92c9f",
          "blockTimestamp": "0x6a33e198",
          "transactionHash": "0x48912a40d3e3ebae0b8cdb1f1dfa256d3d28453bc5e9785a1b2a50c8d0fc04d6",
          "transactionIndex": "0xce",
          "logIndex": "0x160",
          "removed": false
        },
        {
          "address": "0xa0e5ec50ef49064d23688f8aa04a18456824d887",
          "topics": [
            "0xddf252ad1be2c89b69c2b068fc378daa952ba7f163c4a11628f55a4df523b3ef",
            "0x000000000000000000000000e230afd6634749e22ad32db0427f6956ddd7d330",
            "0x000000000000000000000000e03a1074c86cfedd5c142c4f04f1a1536e203543"
          ],
          "data": "0x0000000000000000000000000000000000000000000000000015405bda5acedf",
          "blockHash": "0x5a3fd4a13258dd0876680067e03da59b9e0970f56d4234c49008e29502ea10fd",
          "blockNumber": "0xa92c9f",
          "blockTimestamp": "0x6a33e198",
          "transactionHash": "0x48912a40d3e3ebae0b8cdb1f1dfa256d3d28453bc5e9785a1b2a50c8d0fc04d6",
          "transactionIndex": "0xce",
          "logIndex": "0x161",
          "removed": false
        },
        {
          "address": "0xfc9357957ed537e63bd6d9e70bbe4a68fb69b944",
          "topics": [
            "0xddf252ad1be2c89b69c2b068fc378daa952ba7f163c4a11628f55a4df523b3ef",
            "0x000000000000000000000000e230afd6634749e22ad32db0427f6956ddd7d330",
            "0x000000000000000000000000e03a1074c86cfedd5c142c4f04f1a1536e203543"
          ],
          "data": "0x0000000000000000000000000000000000000000000000000015405bda5acedf",
          "blockHash": "0x5a3fd4a13258dd0876680067e03da59b9e0970f56d4234c49008e29502ea10fd",
          "blockNumber": "0xa92c9f",
          "blockTimestamp": "0x6a33e198",
          "transactionHash": "0x48912a40d3e3ebae0b8cdb1f1dfa256d3d28453bc5e9785a1b2a50c8d0fc04d6",
          "transactionIndex": "0xce",
          "logIndex": "0x162",
          "removed": false
        }
      ],
      "logsBloom": "0x00000000000000000000000000000000000000200000008000000000000000000000000000000000001000000000000000000100000000000001000000000000000000002000000000200008001000000000000000000000000000000000000000400000000000000001000080000000000000004000100000000010000000000000000001000000000010000000000000000000000000000000000004000000000004000000000000000200000000000000000000000000000000000000000000100002000000000000000000000000400000000000000000001000000000001000000000000008000000000000000004000000000000000000000000000000",
      "type": "0x2",
      "transactionHash": "0x48912a40d3e3ebae0b8cdb1f1dfa256d3d28453bc5e9785a1b2a50c8d0fc04d6",
      "transactionIndex": "0xce",
      "blockHash": "0x5a3fd4a13258dd0876680067e03da59b9e0970f56d4234c49008e29502ea10fd",
      "blockNumber": "0xa92c9f",
      "gasUsed": "0x4e6a4",
      "effectiveGasPrice": "0x3fc62374",
      "from": "0xe230afd6634749e22ad32db0427f6956ddd7d330",
      "to": "0x46ee9b44f31b83a28b16a31fde61eaf651f51cee",
      "contractAddress": null
    },
    {
      "status": "0x1",
      "cumulativeGasUsed": "0xab0521",
      "logs": [
        {
          "address": "0xe03a1074c86cfedd5c142c4f04f1a1536e203543",
          "topics": [
            "0xf208f4912782fd25c7f114ca3723a2d5dd6f3bcc3ac8db5af63baa85f711d5ec",
            "0x1a2842c53efe179c6a8ba4e36fd07982e9745deaa129642ad2144bfdd35454c4",
            "0x00000000000000000000000046ee9b44f31b83a28b16a31fde61eaf651f51cee"
          ],
          "data": "0xffffffffffffffffffffffffffffffffffffffffffffffffffffffffffffff8800000000000000000000000000000000000000000000000000000000000000780000000000000000000000000000000000000000000000000de0b6b3a76400000000000000000000000000000000000000000000000000000000000000000001",
          "blockHash": "0x91082370cd93a2be512b2d0c26ac033cdac54a1f9b9f54de69e744eeaf180b58",
          "blockNumber": "0xa92ca0",
          "blockTimestamp": "0x6a33e1a4",
          "transactionHash": "0x87a5bc0f215ed5d9d43b28002e074eff24cb161c053df184bd0b9f75137b7240",
          "transactionIndex": "0x93",
          "logIndex": "0x137",
          "removed": false
        },
        {
          "address": "0xa0e5ec50ef49064d23688f8aa04a18456824d887",
          "topics": [
            "0xddf252ad1be2c89b69c2b068fc378daa952ba7f163c4a11628f55a4df523b3ef",
            "0x000000000000000000000000e230afd6634749e22ad32db0427f6956ddd7d330",
            "0x000000000000000000000000e03a1074c86cfedd5c142c4f04f1a1536e203543"
          ],
          "data": "0x0000000000000000000000000000000000000000000000000015405bda5acedf",
          "blockHash": "0x91082370cd93a2be512b2d0c26ac033cdac54a1f9b9f54de69e744eeaf180b58",
          "blockNumber": "0xa92ca0",
          "blockTimestamp": "0x6a33e1a4",
          "transactionHash": "0x87a5bc0f215ed5d9d43b28002e074eff24cb161c053df184bd0b9f75137b7240",
          "transactionIndex": "0x93",
          "logIndex": "0x138",
          "removed": false
        },
        {
          "address": "0xfc9357957ed537e63bd6d9e70bbe4a68fb69b944",
          "topics": [
            "0xddf252ad1be2c89b69c2b068fc378daa952ba7f163c4a11628f55a4df523b3ef",
            "0x000000000000000000000000e230afd6634749e22ad32db0427f6956ddd7d330",
            "0x000000000000000000000000e03a1074c86cfedd5c142c4f04f1a1536e203543"
          ],
          "data": "0x0000000000000000000000000000000000000000000000000015405bda5acedf",
          "blockHash": "0x91082370cd93a2be512b2d0c26ac033cdac54a1f9b9f54de69e744eeaf180b58",
          "blockNumber": "0xa92ca0",
          "blockTimestamp": "0x6a33e1a4",
          "transactionHash": "0x87a5bc0f215ed5d9d43b28002e074eff24cb161c053df184bd0b9f75137b7240",
          "transactionIndex": "0x93",
          "logIndex": "0x139",
          "removed": false
        }
      ],
      "logsBloom": "0x00000000000000000000000000000000000000200000008000000000000000000000000000000000001000000000000000000100000000000001000000000000000000002000000000200008001000000000000000000000000000000000000000400000000000000001000080000000000000004000100000000010000000000000000001000000000010000000000000000000000000000000000004000000000004000000000000000200000000000000000000000000000000000000000000100002000000000000000000000000400000000000000000001000000000001000000000000008000000000000000004000000000000000000000000000000",
      "type": "0x2",
      "transactionHash": "0x87a5bc0f215ed5d9d43b28002e074eff24cb161c053df184bd0b9f75137b7240",
      "transactionIndex": "0x93",
      "blockHash": "0x91082370cd93a2be512b2d0c26ac033cdac54a1f9b9f54de69e744eeaf180b58",
      "blockNumber": "0xa92ca0",
      "gasUsed": "0x2e69c",
      "effectiveGasPrice": "0x3e82b241",
      "from": "0xe230afd6634749e22ad32db0427f6956ddd7d330",
      "to": "0x46ee9b44f31b83a28b16a31fde61eaf651f51cee",
      "contractAddress": null
    },
    {
      "status": "0x1",
      "cumulativeGasUsed": "0x26de5e2",
      "logs": [
        {
          "address": "0xe03a1074c86cfedd5c142c4f04f1a1536e203543",
          "topics": [
            "0xf208f4912782fd25c7f114ca3723a2d5dd6f3bcc3ac8db5af63baa85f711d5ec",
            "0x1a2842c53efe179c6a8ba4e36fd07982e9745deaa129642ad2144bfdd35454c4",
            "0x00000000000000000000000046ee9b44f31b83a28b16a31fde61eaf651f51cee"
          ],
          "data": "0xffffffffffffffffffffffffffffffffffffffffffffffffffffffffffffff880000000000000000000000000000000000000000000000000000000000000078fffffffffffffffffffffffffffffffffffffffffffffffff21f494c589c00000000000000000000000000000000000000000000000000000000000000000001",
          "blockHash": "0xa77fbebc113375180e9cb518b2344f9e98fbc9e3bb20b547b0f2cd5fac81a1cc",
          "blockNumber": "0xa92ca1",
          "blockTimestamp": "0x6a33e1b0",
          "transactionHash": "0x728a2a0336f35127ce0f827d5ed3ad5e330dc4df211411d0043be881cfbf0bf2",
          "transactionIndex": "0xa0",
          "logIndex": "0xeb",
          "removed": false
        },
        {
          "address": "0xe03a1074c86cfedd5c142c4f04f1a1536e203543",
          "topics": [
            "0x29ef05caaff9404b7cb6d1c0e9bbae9eaa7ab2541feba1a9c4248594c08156cb",
            "0x1a2842c53efe179c6a8ba4e36fd07982e9745deaa129642ad2144bfdd35454c4",
            "0x00000000000000000000000022ee81a8adeb1b64d19e00c812185c89371a0501"
          ],
          "data": "0x0000000000000000000000000000000000000000000000000000a2aaaeb1f9060000000000000000000000000000000000000000000000000000a2aaaeb1f906",
          "blockHash": "0xa77fbebc113375180e9cb518b2344f9e98fbc9e3bb20b547b0f2cd5fac81a1cc",
          "blockNumber": "0xa92ca1",
          "blockTimestamp": "0x6a33e1b0",
          "transactionHash": "0x728a2a0336f35127ce0f827d5ed3ad5e330dc4df211411d0043be881cfbf0bf2",
          "transactionIndex": "0xa0",
          "logIndex": "0xec",
          "removed": false
        },
        {
          "address": "0x22ee81a8adeb1b64d19e00c812185c89371a0501",
          "topics": [
            "0x782fc3f21467a4570fc3c172e4b8ca38659920954991a8220ff1bfe32fe7088d",
            "0x1a2842c53efe179c6a8ba4e36fd07982e9745deaa129642ad2144bfdd35454c4",
            "0x00000000000000000000000046ee9b44f31b83a28b16a31fde61eaf651f51cee"
          ],
          "data": "0xffffffffffffffffffffffffffffffffffffffffffffffffffffffffffffff8800000000000000000000000000000000000000000000000000000000000000780000000000000000000000000000000000000000000000000de0b6b3a7640000000000000000000000000000000000000000000000000000000000000000012b0000000000000000000000000000000000000000000000000000a2aaaeb1f9060000000000000000000000000000000000000000000000000000a2aaaeb1f906",
          "blockHash": "0xa77fbebc113375180e9cb518b2344f9e98fbc9e3bb20b547b0f2cd5fac81a1cc",
          "blockNumber": "0xa92ca1",
          "blockTimestamp": "0x6a33e1b0",
          "transactionHash": "0x728a2a0336f35127ce0f827d5ed3ad5e330dc4df211411d0043be881cfbf0bf2",
          "transactionIndex": "0xa0",
          "logIndex": "0xed",
          "removed": false
        },
        {
          "address": "0xa0e5ec50ef49064d23688f8aa04a18456824d887",
          "topics": [
            "0xddf252ad1be2c89b69c2b068fc378daa952ba7f163c4a11628f55a4df523b3ef",
            "0x000000000000000000000000e03a1074c86cfedd5c142c4f04f1a1536e203543",
            "0x000000000000000000000000e230afd6634749e22ad32db0427f6956ddd7d330"
          ],
          "data": "0x00000000000000000000000000000000000000000000000000149db12ba8d5d8",
          "blockHash": "0xa77fbebc113375180e9cb518b2344f9e98fbc9e3bb20b547b0f2cd5fac81a1cc",
          "blockNumber": "0xa92ca1",
          "blockTimestamp": "0x6a33e1b0",
          "transactionHash": "0x728a2a0336f35127ce0f827d5ed3ad5e330dc4df211411d0043be881cfbf0bf2",
          "transactionIndex": "0xa0",
          "logIndex": "0xee",
          "removed": false
        },
        {
          "address": "0xfc9357957ed537e63bd6d9e70bbe4a68fb69b944",
          "topics": [
            "0xddf252ad1be2c89b69c2b068fc378daa952ba7f163c4a11628f55a4df523b3ef",
            "0x000000000000000000000000e03a1074c86cfedd5c142c4f04f1a1536e203543",
            "0x000000000000000000000000e230afd6634749e22ad32db0427f6956ddd7d330"
          ],
          "data": "0x00000000000000000000000000000000000000000000000000149db12ba8d5d8",
          "blockHash": "0xa77fbebc113375180e9cb518b2344f9e98fbc9e3bb20b547b0f2cd5fac81a1cc",
          "blockNumber": "0xa92ca1",
          "blockTimestamp": "0x6a33e1b0",
          "transactionHash": "0x728a2a0336f35127ce0f827d5ed3ad5e330dc4df211411d0043be881cfbf0bf2",
          "transactionIndex": "0xa0",
          "logIndex": "0xef",
          "removed": false
        }
      ],
      "logsBloom": "0x0000000000000000000000000000000000000020000000800000000000000000000000000000000000100000000000000000010000000000000100000000000000000000200000000020000c001000000000000000004000000000000000000000400000000000000001000080000000000000004000100000008010000080000000000001000000000010000000000000000000000000400000008004000000000004000000400000000200000000000000000000000000000000000000000000100002000000000000000000001000400000000000000000001000000000009000010000000008000000000000000004000000000000000000000000000000",
      "type": "0x2",
      "transactionHash": "0x728a2a0336f35127ce0f827d5ed3ad5e330dc4df211411d0043be881cfbf0bf2",
      "transactionIndex": "0xa0",
      "blockHash": "0xa77fbebc113375180e9cb518b2344f9e98fbc9e3bb20b547b0f2cd5fac81a1cc",
      "blockNumber": "0xa92ca1",
      "gasUsed": "0x2ee44",
      "effectiveGasPrice": "0x3b6d3671",
      "from": "0xe230afd6634749e22ad32db0427f6956ddd7d330",
      "to": "0x46ee9b44f31b83a28b16a31fde61eaf651f51cee",
      "contractAddress": null
    },
    {
      "status": "0x1",
      "cumulativeGasUsed": "0x115c139",
      "logs": [
        {
          "address": "0xe03a1074c86cfedd5c142c4f04f1a1536e203543",
          "topics": [
            "0xf208f4912782fd25c7f114ca3723a2d5dd6f3bcc3ac8db5af63baa85f711d5ec",
            "0x1a2842c53efe179c6a8ba4e36fd07982e9745deaa129642ad2144bfdd35454c4",
            "0x00000000000000000000000046ee9b44f31b83a28b16a31fde61eaf651f51cee"
          ],
          "data": "0xffffffffffffffffffffffffffffffffffffffffffffffffffffffffffffff880000000000000000000000000000000000000000000000000000000000000078fffffffffffffffffffffffffffffffffffffffffffffffff21f494c589c00000000000000000000000000000000000000000000000000000000000000000000",
          "blockHash": "0xb3066a895e42c67f950f718b6cca61c2ae55598febaf3799e87eed802a62333c",
          "blockNumber": "0xa92ca2",
          "blockTimestamp": "0x6a33e1bc",
          "transactionHash": "0x4798f2f2caa06c8a476cfa5278ef099b737b8f34cc2c9eef040afc1944cbefdb",
          "transactionIndex": "0x9f",
          "logIndex": "0x12a",
          "removed": false
        },
        {
          "address": "0x22ee81a8adeb1b64d19e00c812185c89371a0501",
          "topics": [
            "0x782fc3f21467a4570fc3c172e4b8ca38659920954991a8220ff1bfe32fe7088d",
            "0x1a2842c53efe179c6a8ba4e36fd07982e9745deaa129642ad2144bfdd35454c4",
            "0x00000000000000000000000046ee9b44f31b83a28b16a31fde61eaf651f51cee"
          ],
          "data": "0xffffffffffffffffffffffffffffffffffffffffffffffffffffffffffffff8800000000000000000000000000000000000000000000000000000000000000780000000000000000000000000000000000000000000000000de0b6b3a7640000000000000000000000000000000000000000000000000000000000000000012b00000000000000000000000000000000000000000000000000000000000000000000000000000000000000000000000000000000000000000000000000000000",
          "blockHash": "0xb3066a895e42c67f950f718b6cca61c2ae55598febaf3799e87eed802a62333c",
          "blockNumber": "0xa92ca2",
          "blockTimestamp": "0x6a33e1bc",
          "transactionHash": "0x4798f2f2caa06c8a476cfa5278ef099b737b8f34cc2c9eef040afc1944cbefdb",
          "transactionIndex": "0x9f",
          "logIndex": "0x12b",
          "removed": false
        },
        {
          "address": "0xa0e5ec50ef49064d23688f8aa04a18456824d887",
          "topics": [
            "0xddf252ad1be2c89b69c2b068fc378daa952ba7f163c4a11628f55a4df523b3ef",
            "0x000000000000000000000000e03a1074c86cfedd5c142c4f04f1a1536e203543",
            "0x000000000000000000000000e230afd6634749e22ad32db0427f6956ddd7d330"
          ],
          "data": "0x0000000000000000000000000000000000000000000000000015e306890cc7e3",
          "blockHash": "0xb3066a895e42c67f950f718b6cca61c2ae55598febaf3799e87eed802a62333c",
          "blockNumber": "0xa92ca2",
          "blockTimestamp": "0x6a33e1bc",
          "transactionHash": "0x4798f2f2caa06c8a476cfa5278ef099b737b8f34cc2c9eef040afc1944cbefdb",
          "transactionIndex": "0x9f",
          "logIndex": "0x12c",
          "removed": false
        },
        {
          "address": "0xfc9357957ed537e63bd6d9e70bbe4a68fb69b944",
          "topics": [
            "0xddf252ad1be2c89b69c2b068fc378daa952ba7f163c4a11628f55a4df523b3ef",
            "0x000000000000000000000000e03a1074c86cfedd5c142c4f04f1a1536e203543",
            "0x000000000000000000000000e230afd6634749e22ad32db0427f6956ddd7d330"
          ],
          "data": "0x0000000000000000000000000000000000000000000000000015e306890cc7e3",
          "blockHash": "0xb3066a895e42c67f950f718b6cca61c2ae55598febaf3799e87eed802a62333c",
          "blockNumber": "0xa92ca2",
          "blockTimestamp": "0x6a33e1bc",
          "transactionHash": "0x4798f2f2caa06c8a476cfa5278ef099b737b8f34cc2c9eef040afc1944cbefdb",
          "transactionIndex": "0x9f",
          "logIndex": "0x12d",
          "removed": false
        }
      ],
      "logsBloom": "0x0000000000000000000000000000000000000020000000800000000000000000000000000000000000100000000000000000010000000000000100000000000000000000200000000020000c001000000000000000004000000000000000000000400000000000000001000080000000000000004000100000000010000000000000000001000000000010000000000000000000000000000000000004000000000004000000400000000200000000000000000000000000000000000000000000100002000000000000000000000000400000000000000000001000000000009000010000000008000000000000000004000000000000000000000000000000",
      "type": "0x2",
      "transactionHash": "0x4798f2f2caa06c8a476cfa5278ef099b737b8f34cc2c9eef040afc1944cbefdb",
      "transactionIndex": "0x9f",
      "blockHash": "0xb3066a895e42c67f950f718b6cca61c2ae55598febaf3799e87eed802a62333c",
      "blockNumber": "0xa92ca2",
      "gasUsed": "0x29c6c",
      "effectiveGasPrice": "0x3f761e9b",
      "from": "0xe230afd6634749e22ad32db0427f6956ddd7d330",
      "to": "0x46ee9b44f31b83a28b16a31fde61eaf651f51cee",
      "contractAddress": null
    }
  ],
  "libraries": [],
  "pending": [],
  "returns": {},
  "timestamp": 1781785021593,
  "chain": 11155111,
  "commit": null
}